{
    "_format": "hh-sol-artifact-1",
    "contractName": "MarketPlace",
    "sourceName": "contracts/MarketPlace.sol",
    "abi": [
        {
            "inputs": [
                {
                    "internalType": "contract SionToken",
                    "name": "_sionTokenAddr",
                    "type": "address"
                },
                {
                    "internalType": "contract SionLand",
                    "name": "_sionLandAddr",
                    "type": "address"
                }
            ],
            "stateMutability": "nonpayable",
            "type": "constructor"
        },
        {
            "anonymous": false,
            "inputs": [
                {
                    "indexed": false,
                    "internalType": "address",
                    "name": "buyer",
                    "type": "address"
                },
                {
                    "indexed": false,
                    "internalType": "uint256",
                    "name": "_mount",
                    "type": "uint256"
                }
            ],
            "name": "BuyLandsFinished",
            "type": "event"
        },
        {
            "inputs": [],
            "name": "_sionLand",
            "outputs": [
                {
                    "internalType": "contract SionLand",
                    "name": "",
                    "type": "address"
                }
            ],
            "stateMutability": "view",
            "type": "function"
        },
        {
            "inputs": [],
            "name": "_sionToken",
            "outputs": [
                {
                    "internalType": "contract SionToken",
                    "name": "",
                    "type": "address"
                }
            ],
            "stateMutability": "view",
            "type": "function"
        },
        {
            "inputs": [
                {
                    "internalType": "address",
                    "name": "_currentOwner",
                    "type": "address"
                },
                {
                    "internalType": "uint256",
                    "name": "_rateToLand",
                    "type": "uint256"
                },
                {
                    "internalType": "string[]",
                    "name": "_landIds",
                    "type": "string[]"
                }
            ],
            "name": "buyLands",
            "outputs": [],
            "stateMutability": "nonpayable",
            "type": "function"
        }
    ],
    "bytecode": "0x608060405234801561001057600080fd5b506040516105f03803806105f083398101604081905261002f91610060565b600080546001600160a01b039384166001600160a01b031991821617909155600180549290931691161790556100b1565b60008060408385031215610072578182fd5b825161007d81610099565b602084015190925061008e81610099565b809150509250929050565b6001600160a01b03811681146100ae57600080fd5b50565b610530806100c06000396000f3fe608060405234801561001057600080fd5b50600436106100415760003560e01c8063481ca2fb146100465780636efafe441461005b578063a6c7c8ba14610079575b600080fd5b610059610054366004610202565b610081565b005b6100636101e4565b6040516100709190610423565b60405180910390f35b6100636101f3565b600b8151106100ab5760405162461bcd60e51b81526004016100a290610437565b60405180910390fd5b60005481516001600160a01b03909116906323b872dd90339086906100d090876104b9565b6040518463ffffffff1660e01b81526004016100ee9392919061033e565b602060405180830381600087803b15801561010857600080fd5b505af115801561011c573d6000803e3d6000fd5b505050506040513d601f19601f820116820180604052508101906101409190610317565b5060015460405163cbcf32ef60e01b81526001600160a01b039091169063cbcf32ef906101739033908590600401610362565b600060405180830381600087803b15801561018d57600080fd5b505af11580156101a1573d6000803e3d6000fd5b505050507f2319f4e7fda9c2fa9a502e36d3a9a8ea4eff34888514159e2045437742a26c413382516040516101d792919061040a565b60405180910390a1505050565b6001546001600160a01b031681565b6000546001600160a01b031681565b600080600060608486031215610216578283fd5b83356001600160a01b038116811461022c578384fd5b9250602084810135925060408501356001600160401b038082111561024f578384fd5b818701915087601f830112610262578384fd5b813581811115610274576102746104e4565b6102818485830201610490565b81815284810190848601875b8481101561030557813587018d603f8201126102a757898afd5b88810135878111156102bb576102bb6104e4565b6102cd601f8201601f19168b01610490565b8181528f60408385010111156102e1578b8cfd5b81604084018c8301379081018a018b9052855250928701929087019060010161028d565b50508096505050505050509250925092565b600060208284031215610328578081fd5b81518015158114610337578182fd5b9392505050565b6001600160a01b039384168152919092166020820152604081019190915260600190565b6001600160a01b0383168152604060208083018290528351918301829052600091606081830285018101929190850190868301855b828110156103fc57878603605f1901845281518051808852885b818110156103cc5782810188015189820189015287016103b1565b818111156103dc578988838b0101525b50601f01601f191696909601850195509284019290840190600101610397565b509398975050505050505050565b6001600160a01b03929092168252602082015260400190565b6001600160a01b0391909116815260200190565b60208082526039908201527f726576657274207768656e2070757263686173696e67203131206f72206d6f7260408201527832903630b732399030ba103a34329039b0b6b2903a34b6b29760391b606082015260800190565b6040518181016001600160401b03811182821017156104b1576104b16104e4565b604052919050565b60008160001904831182151516156104df57634e487b7160e01b81526011600452602481fd5b500290565b634e487b7160e01b600052604160045260246000fdfea2646970667358221220acde41b5fff37dea3260a81214d1b5bbd7e2de828a67fe2c09848c0b8bcf53f964736f6c63430008000033",
    "linkReferences": {},
    "deployedLinkReferences": {}
}