{
    "_format": "hh-sol-artifact-1",
    "contractName": "SionLand",
    "sourceName": "contracts/SionLand.sol",
    "abi": [
        {
            "inputs": [],
            "stateMutability": "nonpayable",
            "type": "constructor"
        },
        {
            "anonymous": false,
            "inputs": [
                {
                    "indexed": true,
                    "internalType": "address",
                    "name": "owner",
                    "type": "address"
                },
                {
                    "indexed": true,
                    "internalType": "address",
                    "name": "approved",
                    "type": "address"
                },
                {
                    "indexed": true,
                    "internalType": "uint256",
                    "name": "tokenId",
                    "type": "uint256"
                }
            ],
            "name": "Approval",
            "type": "event"
        },
        {
            "anonymous": false,
            "inputs": [
                {
                    "indexed": true,
                    "internalType": "address",
                    "name": "owner",
                    "type": "address"
                },
                {
                    "indexed": true,
                    "internalType": "address",
                    "name": "operator",
                    "type": "address"
                },
                {
                    "indexed": false,
                    "internalType": "bool",
                    "name": "approved",
                    "type": "bool"
                }
            ],
            "name": "ApprovalForAll",
            "type": "event"
        },
        {
            "anonymous": false,
            "inputs": [
                {
                    "indexed": false,
                    "internalType": "address",
                    "name": "to",
                    "type": "address"
                },
                {
                    "indexed": false,
                    "internalType": "uint256",
                    "name": "_mount",
                    "type": "uint256"
                }
            ],
            "name": "LandMintBatchFinished",
            "type": "event"
        },
        {
            "anonymous": false,
            "inputs": [
                {
                    "indexed": true,
                    "internalType": "address",
                    "name": "previousOwner",
                    "type": "address"
                },
                {
                    "indexed": true,
                    "internalType": "address",
                    "name": "newOwner",
                    "type": "address"
                }
            ],
            "name": "OwnershipTransferred",
            "type": "event"
        },
        {
            "anonymous": false,
            "inputs": [
                {
                    "indexed": true,
                    "internalType": "address",
                    "name": "from",
                    "type": "address"
                },
                {
                    "indexed": true,
                    "internalType": "address",
                    "name": "to",
                    "type": "address"
                },
                {
                    "indexed": true,
                    "internalType": "uint256",
                    "name": "tokenId",
                    "type": "uint256"
                }
            ],
            "name": "Transfer",
            "type": "event"
        },
        {
            "inputs": [
                {
                    "internalType": "address",
                    "name": "to",
                    "type": "address"
                },
                {
                    "internalType": "uint256",
                    "name": "tokenId",
                    "type": "uint256"
                }
            ],
            "name": "approve",
            "outputs": [],
            "stateMutability": "nonpayable",
            "type": "function"
        },
        {
            "inputs": [
                {
                    "internalType": "address",
                    "name": "owner",
                    "type": "address"
                }
            ],
            "name": "balanceOf",
            "outputs": [
                {
                    "internalType": "uint256",
                    "name": "",
                    "type": "uint256"
                }
            ],
            "stateMutability": "view",
            "type": "function"
        },
        {
            "inputs": [
                {
                    "internalType": "uint256",
                    "name": "tokenId",
                    "type": "uint256"
                }
            ],
            "name": "getApproved",
            "outputs": [
                {
                    "internalType": "address",
                    "name": "",
                    "type": "address"
                }
            ],
            "stateMutability": "view",
            "type": "function"
        },
        {
            "inputs": [
                {
                    "internalType": "address",
                    "name": "_account",
                    "type": "address"
                },
                {
                    "internalType": "uint256",
                    "name": "_id",
                    "type": "uint256"
                }
            ],
            "name": "getLand",
            "outputs": [
                {
                    "internalType": "string",
                    "name": "",
                    "type": "string"
                }
            ],
            "stateMutability": "view",
            "type": "function"
        },
        {
            "inputs": [
                {
                    "internalType": "address",
                    "name": "_account",
                    "type": "address"
                }
            ],
            "name": "getLandsBatch",
            "outputs": [
                {
                    "internalType": "string[]",
                    "name": "landsList",
                    "type": "string[]"
                }
            ],
            "stateMutability": "view",
            "type": "function"
        },
        {
            "inputs": [
                {
                    "internalType": "address",
                    "name": "_account",
                    "type": "address"
                }
            ],
            "name": "getLastTokenId",
            "outputs": [
                {
                    "internalType": "uint256",
                    "name": "",
                    "type": "uint256"
                }
            ],
            "stateMutability": "view",
            "type": "function"
        },
        {
            "inputs": [
                {
                    "internalType": "address",
                    "name": "owner",
                    "type": "address"
                },
                {
                    "internalType": "address",
                    "name": "operator",
                    "type": "address"
                }
            ],
            "name": "isApprovedForAll",
            "outputs": [
                {
                    "internalType": "bool",
                    "name": "",
                    "type": "bool"
                }
            ],
            "stateMutability": "view",
            "type": "function"
        },
        {
            "inputs": [
                {
                    "internalType": "address",
                    "name": "_to",
                    "type": "address"
                },
                {
                    "internalType": "string[]",
                    "name": "_landIds",
                    "type": "string[]"
                }
            ],
            "name": "landMintBatch",
            "outputs": [],
            "stateMutability": "nonpayable",
            "type": "function"
        },
        {
            "inputs": [],
            "name": "name",
            "outputs": [
                {
                    "internalType": "string",
                    "name": "",
                    "type": "string"
                }
            ],
            "stateMutability": "view",
            "type": "function"
        },
        {
            "inputs": [
                {
                    "internalType": "address",
                    "name": "account",
                    "type": "address"
                }
            ],
            "name": "nextTokenId",
            "outputs": [
                {
                    "internalType": "uint256",
                    "name": "",
                    "type": "uint256"
                }
            ],
            "stateMutability": "view",
            "type": "function"
        },
        {
            "inputs": [],
            "name": "owner",
            "outputs": [
                {
                    "internalType": "address",
                    "name": "",
                    "type": "address"
                }
            ],
            "stateMutability": "view",
            "type": "function"
        },
        {
            "inputs": [
                {
                    "internalType": "uint256",
                    "name": "tokenId",
                    "type": "uint256"
                }
            ],
            "name": "ownerOf",
            "outputs": [
                {
                    "internalType": "address",
                    "name": "",
                    "type": "address"
                }
            ],
            "stateMutability": "view",
            "type": "function"
        },
        {
            "inputs": [],
            "name": "renounceOwnership",
            "outputs": [],
            "stateMutability": "nonpayable",
            "type": "function"
        },
        {
            "inputs": [
                {
                    "internalType": "address",
                    "name": "from",
                    "type": "address"
                },
                {
                    "internalType": "address",
                    "name": "to",
                    "type": "address"
                },
                {
                    "internalType": "uint256",
                    "name": "tokenId",
                    "type": "uint256"
                }
            ],
            "name": "safeTransferFrom",
            "outputs": [],
            "stateMutability": "nonpayable",
            "type": "function"
        },
        {
            "inputs": [
                {
                    "internalType": "address",
                    "name": "from",
                    "type": "address"
                },
                {
                    "internalType": "address",
                    "name": "to",
                    "type": "address"
                },
                {
                    "internalType": "uint256",
                    "name": "tokenId",
                    "type": "uint256"
                },
                {
                    "internalType": "bytes",
                    "name": "_data",
                    "type": "bytes"
                }
            ],
            "name": "safeTransferFrom",
            "outputs": [],
            "stateMutability": "nonpayable",
            "type": "function"
        },
        {
            "inputs": [
                {
                    "internalType": "address",
                    "name": "operator",
                    "type": "address"
                },
                {
                    "internalType": "bool",
                    "name": "approved",
                    "type": "bool"
                }
            ],
            "name": "setApprovalForAll",
            "outputs": [],
            "stateMutability": "nonpayable",
            "type": "function"
        },
        {
            "inputs": [
                {
                    "internalType": "bytes4",
                    "name": "interfaceId",
                    "type": "bytes4"
                }
            ],
            "name": "supportsInterface",
            "outputs": [
                {
                    "internalType": "bool",
                    "name": "",
                    "type": "bool"
                }
            ],
            "stateMutability": "view",
            "type": "function"
        },
        {
            "inputs": [],
            "name": "symbol",
            "outputs": [
                {
                    "internalType": "string",
                    "name": "",
                    "type": "string"
                }
            ],
            "stateMutability": "view",
            "type": "function"
        },
        {
            "inputs": [
                {
                    "internalType": "uint256",
                    "name": "tokenId",
                    "type": "uint256"
                }
            ],
            "name": "tokenURI",
            "outputs": [
                {
                    "internalType": "string",
                    "name": "",
                    "type": "string"
                }
            ],
            "stateMutability": "view",
            "type": "function"
        },
        {
            "inputs": [
                {
                    "internalType": "address",
                    "name": "from",
                    "type": "address"
                },
                {
                    "internalType": "address",
                    "name": "to",
                    "type": "address"
                },
                {
                    "internalType": "uint256",
                    "name": "tokenId",
                    "type": "uint256"
                }
            ],
            "name": "transferFrom",
            "outputs": [],
            "stateMutability": "nonpayable",
            "type": "function"
        },
        {
            "inputs": [
                {
                    "internalType": "address",
                    "name": "newOwner",
                    "type": "address"
                }
            ],
            "name": "transferOwnership",
            "outputs": [],
            "stateMutability": "nonpayable",
            "type": "function"
        }
    ],
    "bytecode": "0x60806040523480156200001157600080fd5b506040518060400160405280600481526020016313185b9960e21b8152506040518060400160405280600481526020016329a4a7a760e11b815250816000908051906020019062000064929190620000f3565b5080516200007a906001906020840190620000f3565b50505062000097620000916200009d60201b60201c565b620000a1565b620001d6565b3390565b600680546001600160a01b038381166001600160a01b0319831681179093556040519116919082907f8be0079c531659141344cd1fd0a4f28419497f9722a3daafe3b4186f6b6457e090600090a35050565b828054620001019062000199565b90600052602060002090601f01602090048101928262000125576000855562000170565b82601f106200014057805160ff191683800117855562000170565b8280016001018555821562000170579182015b828111156200017057825182559160200191906001019062000153565b506200017e92915062000182565b5090565b5b808211156200017e576000815560010162000183565b600281046001821680620001ae57607f821691505b60208210811415620001d057634e487b7160e01b600052602260045260246000fd5b50919050565b611cc180620001e66000396000f3fe608060405234801561001057600080fd5b50600436106101075760003560e01c806301ffc9a71461010c57806306fdde0314610135578063081812fc1461014a578063095ea7b31461016a57806323b872dd1461017f57806342842e0e146101925780636352211e146101a557806365742555146101b857806370a08231146101cb578063715018a6146101eb57806381c7fcae146101f35780638da5cb5b1461021357806395d89b411461021b578063a22cb46514610223578063afa5506d14610236578063b88d4fde14610249578063c852b1bf1461025c578063c87b56dd1461026f578063cbcf32ef14610282578063e985e9c514610295578063f2fde38b146102a8575b600080fd5b61011f61011a3660046114f8565b6102bb565b60405161012c919061166d565b60405180910390f35b61013d610303565b60405161012c9190611678565b61015d610158366004611530565b610395565b60405161012c91906115a3565b61017d6101783660046114cf565b6103e1565b005b61017d61018d36600461131d565b610479565b61017d6101a036600461131d565b6104b1565b61015d6101b3366004611530565b6104cc565b61013d6101c63660046114cf565b610501565b6101de6101d93660046112d1565b6105df565b60405161012c9190611b0e565b61017d610623565b6102066102013660046112d1565b61066e565b60405161012c919061160d565b61015d6107f6565b61013d610805565b61017d610231366004611495565b610814565b6101de6102443660046112d1565b6108e2565b61017d610257366004611358565b6108fd565b6101de61026a3660046112d1565b61093c565b61013d61027d366004611530565b610960565b61017d6102903660046113d0565b6109e3565b61011f6102a33660046112eb565b610ae5565b61017d6102b63660046112d1565b610b13565b60006001600160e01b031982166380ac58cd60e01b14806102ec57506001600160e01b03198216635b5e139f60e01b145b806102fb57506102fb82610b84565b90505b919050565b60606000805461031290611baf565b80601f016020809104026020016040519081016040528092919081815260200182805461033e90611baf565b801561038b5780601f106103605761010080835404028352916020019161038b565b820191906000526020600020905b81548152906001019060200180831161036e57829003601f168201915b5050505050905090565b60006103a082610b9d565b6103c55760405162461bcd60e51b81526004016103bc9061193c565b60405180910390fd5b506000908152600460205260409020546001600160a01b031690565b60006103ec826104cc565b9050806001600160a01b0316836001600160a01b031614156104205760405162461bcd60e51b81526004016103bc90611a7c565b806001600160a01b0316610432610bba565b6001600160a01b0316148061044e575061044e816102a3610bba565b61046a5760405162461bcd60e51b81526004016103bc9061181c565b6104748383610bbe565b505050565b61048a610484610bba565b82610c2c565b6104a65760405162461bcd60e51b81526004016103bc90611abd565b610474838383610cb1565b610474838383604051806020016040528060008152506108fd565b6000818152600260205260408120546001600160a01b0316806102fb5760405162461bcd60e51b81526004016103bc906118be565b6060600061050e846105df565b1161052b5760405162461bcd60e51b81526004016103bc90611a55565b6001600160a01b03831660009081526009602090815260408083208584529091529020805461055990611baf565b80601f016020809104026020016040519081016040528092919081815260200182805461058590611baf565b80156105d25780601f106105a7576101008083540402835291602001916105d2565b820191906000526020600020905b8154815290600101906020018083116105b557829003601f168201915b5050505050905092915050565b60006001600160a01b0382166106075760405162461bcd60e51b81526004016103bc90611874565b506001600160a01b031660009081526003602052604090205490565b61062b610bba565b6001600160a01b031661063c6107f6565b6001600160a01b0316146106625760405162461bcd60e51b81526004016103bc90611988565b61066c6000610dcc565b565b6060610679826105df565b6001600160401b0381111561069e57634e487b7160e01b600052604160045260246000fd5b6040519080825280602002602001820160405280156106d157816020015b60608152602001906001900390816106bc5790505b50905060005b6001600160a01b0383166000908152600860205260409020548110156107f0576001600160a01b03831660009081526009602052604081209061071b836001611b40565b8152602001908152602001600020805461073490611baf565b80601f016020809104026020016040519081016040528092919081815260200182805461076090611baf565b80156107ad5780601f10610782576101008083540402835291602001916107ad565b820191906000526020600020905b81548152906001019060200180831161079057829003601f168201915b50505050508282815181106107d257634e487b7160e01b600052603260045260246000fd5b602002602001018190525080806107e890611be4565b9150506106d7565b50919050565b6006546001600160a01b031690565b60606001805461031290611baf565b61081c610bba565b6001600160a01b0316826001600160a01b0316141561084d5760405162461bcd60e51b81526004016103bc9061179d565b806005600061085a610bba565b6001600160a01b03908116825260208083019390935260409182016000908120918716808252919093529120805460ff19169215159290921790915561089e610bba565b6001600160a01b03167f17307eab39ab6107e8899845ad3d59bd9653f200f220920489ca2b5937696c31836040516108d6919061166d565b60405180910390a35050565b6001600160a01b031660009081526008602052604090205490565b61090e610908610bba565b83610c2c565b61092a5760405162461bcd60e51b81526004016103bc90611abd565b61093684848484610e1e565b50505050565b6001600160a01b0381166000908152600860205260408120546102fb906001611b40565b606061096b82610b9d565b6109875760405162461bcd60e51b81526004016103bc90611a06565b6000610991610e51565b905060008151116109b157604051806020016040528060008152506109dc565b806109bb84610e63565b6040516020016109cc929190611574565b6040516020818303038152906040525b9392505050565b60005b8151811015610aa657600780549060006109ff83611be4565b91905055506000610a0f8461093c565b9050610a2d8460075460405180602001604052806000815250610f7d565b828281518110610a4d57634e487b7160e01b600052603260045260246000fd5b6020908102919091018101516001600160a01b0386166000908152600983526040808220858352845290208151610a89939192909101906111ca565b50610a9384610fb0565b5080610a9e81611be4565b9150506109e6565b507fda5424d57b312f7e222793454b3a7813daf4f6451ad5272d7e5c74b3f18fa512828251604051610ad99291906115f4565b60405180910390a15050565b6001600160a01b03918216600090815260056020908152604080832093909416825291909152205460ff1690565b610b1b610bba565b6001600160a01b0316610b2c6107f6565b6001600160a01b031614610b525760405162461bcd60e51b81526004016103bc90611988565b6001600160a01b038116610b785760405162461bcd60e51b81526004016103bc906116dd565b610b8181610dcc565b50565b6001600160e01b031981166301ffc9a760e01b14919050565b6000908152600260205260409020546001600160a01b0316151590565b3390565b600081815260046020526040902080546001600160a01b0319166001600160a01b0384169081179091558190610bf3826104cc565b6001600160a01b03167f8c5be1e5ebec7d5bd14f71427d1e84f3dd0314c0f7b2291e5b200ac8c7c3b92560405160405180910390a45050565b6000610c3782610b9d565b610c535760405162461bcd60e51b81526004016103bc906117d0565b6000610c5e836104cc565b9050806001600160a01b0316846001600160a01b03161480610c995750836001600160a01b0316610c8e84610395565b6001600160a01b0316145b80610ca95750610ca98185610ae5565b949350505050565b826001600160a01b0316610cc4826104cc565b6001600160a01b031614610cea5760405162461bcd60e51b81526004016103bc906119bd565b6001600160a01b038216610d105760405162461bcd60e51b81526004016103bc90611759565b610d1b838383610474565b610d26600082610bbe565b6001600160a01b0383166000908152600360205260408120805460019290610d4f908490611b6c565b90915550506001600160a01b0382166000908152600360205260408120805460019290610d7d908490611b40565b909155505060008181526002602052604080822080546001600160a01b0319166001600160a01b038681169182179092559151849391871691600080516020611c6c83398151915291a4505050565b600680546001600160a01b038381166001600160a01b0319831681179093556040519116919082907f8be0079c531659141344cd1fd0a4f28419497f9722a3daafe3b4186f6b6457e090600090a35050565b610e29848484610cb1565b610e3584848484610fdc565b6109365760405162461bcd60e51b81526004016103bc9061168b565b60408051602081019091526000815290565b606081610e8857506040805180820190915260018152600360fc1b60208201526102fe565b8160005b8115610eb25780610e9c81611be4565b9150610eab9050600a83611b58565b9150610e8c565b6000816001600160401b03811115610eda57634e487b7160e01b600052604160045260246000fd5b6040519080825280601f01601f191660200182016040528015610f04576020820181803683370190505b5090505b8415610ca957610f19600183611b6c565b9150610f26600a86611bff565b610f31906030611b40565b60f81b818381518110610f5457634e487b7160e01b600052603260045260246000fd5b60200101906001600160f81b031916908160001a905350610f76600a86611b58565b9450610f08565b610f8783836110f7565b610f946000848484610fdc565b6104745760405162461bcd60e51b81526004016103bc9061168b565b6001600160a01b0381166000908152600860205260408120805491610fd483611be4565b919050555050565b6000610ff0846001600160a01b03166111c4565b156110ec57836001600160a01b031663150b7a0261100c610bba565b8786866040518563ffffffff1660e01b815260040161102e94939291906115b7565b602060405180830381600087803b15801561104857600080fd5b505af1925050508015611078575060408051601f3d908101601f1916820190925261107591810190611514565b60015b6110d2573d8080156110a6576040519150601f19603f3d011682016040523d82523d6000602084013e6110ab565b606091505b5080516110ca5760405162461bcd60e51b81526004016103bc9061168b565b805181602001fd5b6001600160e01b031916630a85bd0160e11b149050610ca9565b506001949350505050565b6001600160a01b03821661111d5760405162461bcd60e51b81526004016103bc90611907565b61112681610b9d565b156111435760405162461bcd60e51b81526004016103bc90611723565b61114f60008383610474565b6001600160a01b0382166000908152600360205260408120805460019290611178908490611b40565b909155505060008181526002602052604080822080546001600160a01b0319166001600160a01b0386169081179091559051839290600080516020611c6c833981519152908290a45050565b3b151590565b8280546111d690611baf565b90600052602060002090601f0160209004810192826111f8576000855561123e565b82601f1061121157805160ff191683800117855561123e565b8280016001018555821561123e579182015b8281111561123e578251825591602001919060010190611223565b5061124a92915061124e565b5090565b5b8082111561124a576000815560010161124f565b60006001600160401b0383111561127c5761127c611c3f565b61128f601f8401601f1916602001611b17565b90508281528383830111156112a357600080fd5b828260208301376000602084830101529392505050565b80356001600160a01b03811681146102fe57600080fd5b6000602082840312156112e2578081fd5b6109dc826112ba565b600080604083850312156112fd578081fd5b611306836112ba565b9150611314602084016112ba565b90509250929050565b600080600060608486031215611331578081fd5b61133a846112ba565b9250611348602085016112ba565b9150604084013590509250925092565b6000806000806080858703121561136d578081fd5b611376856112ba565b9350611384602086016112ba565b92506040850135915060608501356001600160401b038111156113a5578182fd5b8501601f810187136113b5578182fd5b6113c487823560208401611263565b91505092959194509250565b60008060408084860312156113e3578283fd5b6113ec846112ba565b92506020848101356001600160401b0380821115611408578485fd5b818701915087601f83011261141b578485fd5b81358181111561142d5761142d611c3f565b61143a8485830201611b17565b8181528481019250838501875b8381101561148457813586018c603f82011261146157898afd5b6114718d898301358b8401611263565b8652509386019390860190600101611447565b50979a909950975050505050505050565b600080604083850312156114a7578182fd5b6114b0836112ba565b9150602083013580151581146114c4578182fd5b809150509250929050565b600080604083850312156114e1578182fd5b6114ea836112ba565b946020939093013593505050565b600060208284031215611509578081fd5b81356109dc81611c55565b600060208284031215611525578081fd5b81516109dc81611c55565b600060208284031215611541578081fd5b5035919050565b60008151808452611560816020860160208601611b83565b601f01601f19169290920160200192915050565b60008351611586818460208801611b83565b83519083019061159a818360208801611b83565b01949350505050565b6001600160a01b0391909116815260200190565b6001600160a01b03858116825284166020820152604081018390526080606082018190526000906115ea90830184611548565b9695505050505050565b6001600160a01b03929092168252602082015260400190565b6000602080830181845280855180835260408601915060408482028701019250838701855b8281101561166057603f1988860301845261164e858351611548565b94509285019290850190600101611632565b5092979650505050505050565b901515815260200190565b6000602082526109dc6020830184611548565b60208082526032908201527f4552433732313a207472616e7366657220746f206e6f6e20455243373231526560408201527131b2b4bb32b91034b6b83632b6b2b73a32b960711b606082015260800190565b60208082526026908201527f4f776e61626c653a206e6577206f776e657220697320746865207a65726f206160408201526564647265737360d01b606082015260800190565b6020808252601c908201527b115490cdcc8c4e881d1bdad95b88185b1c9958591e481b5a5b9d195960221b604082015260600190565b60208082526024908201527f4552433732313a207472616e7366657220746f20746865207a65726f206164646040820152637265737360e01b606082015260800190565b60208082526019908201527822a9219b99189d1030b8383937bb32903a379031b0b63632b960391b604082015260600190565b6020808252602c908201527f4552433732313a206f70657261746f7220717565727920666f72206e6f6e657860408201526b34b9ba32b73a103a37b5b2b760a11b606082015260800190565b60208082526038908201527f4552433732313a20617070726f76652063616c6c6572206973206e6f74206f776040820152771b995c881b9bdc88185c1c1c9bdd995908199bdc88185b1b60421b606082015260800190565b6020808252602a908201527f4552433732313a2062616c616e636520717565727920666f7220746865207a65604082015269726f206164647265737360b01b606082015260800190565b60208082526029908201527f4552433732313a206f776e657220717565727920666f72206e6f6e657869737460408201526832b73a103a37b5b2b760b91b606082015260800190565b6020808252818101527f4552433732313a206d696e7420746f20746865207a65726f2061646472657373604082015260600190565b6020808252602c908201527f4552433732313a20617070726f76656420717565727920666f72206e6f6e657860408201526b34b9ba32b73a103a37b5b2b760a11b606082015260800190565b6020808252818101527f4f776e61626c653a2063616c6c6572206973206e6f7420746865206f776e6572604082015260600190565b60208082526029908201527f4552433732313a207472616e73666572206f6620746f6b656e2074686174206960408201526839903737ba1037bbb760b91b606082015260800190565b6020808252602f908201527f4552433732314d657461646174613a2055524920717565727920666f72206e6f60408201526e3732bc34b9ba32b73a103a37b5b2b760891b606082015260800190565b6020808252600d908201526c1b9bc81b185b99081bdddb9959609a1b604082015260600190565b60208082526021908201527f4552433732313a20617070726f76616c20746f2063757272656e74206f776e656040820152603960f91b606082015260800190565b60208082526031908201527f4552433732313a207472616e736665722063616c6c6572206973206e6f74206f6040820152701ddb995c881b9bdc88185c1c1c9bdd9959607a1b606082015260800190565b90815260200190565b6040518181016001600160401b0381118282101715611b3857611b38611c3f565b604052919050565b60008219821115611b5357611b53611c13565b500190565b600082611b6757611b67611c29565b500490565b600082821015611b7e57611b7e611c13565b500390565b60005b83811015611b9e578181015183820152602001611b86565b838111156109365750506000910152565b600281046001821680611bc357607f821691505b602082108114156107f057634e487b7160e01b600052602260045260246000fd5b6000600019821415611bf857611bf8611c13565b5060010190565b600082611c0e57611c0e611c29565b500690565b634e487b7160e01b600052601160045260246000fd5b634e487b7160e01b600052601260045260246000fd5b634e487b7160e01b600052604160045260246000fd5b6001600160e01b031981168114610b8157600080fdfeddf252ad1be2c89b69c2b068fc378daa952ba7f163c4a11628f55a4df523b3efa2646970667358221220e1b14cbbcadfd245bb70803bb6ddd2102eccf50a50eda49c62610c54c71d75f064736f6c63430008000033",
    "linkReferences": {},
    "deployedLinkReferences": {}
}